{
  "contractName": "Certificate",
  "abi": [
    {
      "constant": true,
      "inputs": [
        {
          "name": "",
          "type": "uint256"
        }
      ],
      "name": "students",
      "outputs": [
        {
          "name": "id",
          "type": "uint256"
        },
        {
          "name": "first_name",
          "type": "string"
        },
        {
          "name": "last_name",
          "type": "string"
        },
        {
          "name": "class",
          "type": "string"
        },
        {
          "name": "rank",
          "type": "string"
        },
        {
          "name": "field",
          "type": "string"
        }
      ],
      "payable": false,
      "stateMutability": "view",
      "type": "function"
    },
    {
      "constant": true,
      "inputs": [],
      "name": "studentsCount",
      "outputs": [
        {
          "name": "",
          "type": "uint256"
        }
      ],
      "payable": false,
      "stateMutability": "view",
      "type": "function"
    },
    {
      "inputs": [],
      "payable": false,
      "stateMutability": "nonpayable",
      "type": "constructor"
    },
    {
      "constant": false,
      "inputs": [
        {
          "name": "first_name",
          "type": "string"
        },
        {
          "name": "last_name",
          "type": "string"
        },
        {
          "name": "class",
          "type": "string"
        },
        {
          "name": "rank",
          "type": "string"
        },
        {
          "name": "field",
          "type": "string"
        }
      ],
      "name": "addStudent",
      "outputs": [],
      "payable": false,
      "stateMutability": "nonpayable",
      "type": "function"
    }
  ],
  "bytecode": "0x608060405234801561001057600080fd5b506101366040805190810160405280600681526020017f53616e6a617900000000000000000000000000000000000000000000000000008152506040805190810160405280600781526020017f4a616e79616e69000000000000000000000000000000000000000000000000008152506040805190810160405280600381526020017f44313000000000000000000000000000000000000000000000000000000000008152506040805190810160405280600581526020017f46697273740000000000000000000000000000000000000000000000000000008152506040805190810160405280600981526020017f41636164656d6963730000000000000000000000000000000000000000000000815250610260640100000000026401000000009004565b61025b6040805190810160405280600681526020017f4c6174696b6100000000000000000000000000000000000000000000000000008152506040805190810160405280600781526020017f4775726e616e69000000000000000000000000000000000000000000000000008152506040805190810160405280600381526020017f44313000000000000000000000000000000000000000000000000000000000008152506040805190810160405280600581526020017f46697273740000000000000000000000000000000000000000000000000000008152506040805190810160405280600981526020017f41636164656d6963730000000000000000000000000000000000000000000000815250610260640100000000026401000000009004565b610400565b60016000815480929190600101919050555060c06040519081016040528060015481526020018681526020018581526020018481526020018381526020018281525060008060015481526020019081526020016000206000820151816000015560208201518160010190805190602001906102dc92919061035b565b5060408201518160020190805190602001906102f992919061035b565b50606082015181600301908051906020019061031692919061035b565b50608082015181600401908051906020019061033392919061035b565b5060a082015181600501908051906020019061035092919061035b565b509050505050505050565b828054600181600116156101000203166002900490600052602060002090601f016020900481019282601f1061039c57805160ff19168380011785556103ca565b828001600101855582156103ca579182015b828111156103c95782518255916020019190600101906103ae565b5b5090506103d791906103db565b5090565b6103fd91905b808211156103f95760008160009055506001016103e1565b5090565b90565b61096b80620004106000396000f300608060405260043610610057576000357c0100000000000000000000000000000000000000000000000000000000900463ffffffff16806306ead22e1461005c57806368433a3a146102b95780639d35e6c2146102e4575b600080fd5b34801561006857600080fd5b5061008760048036038101908080359060200190929190505050610465565b60405180878152602001806020018060200180602001806020018060200186810386528b818151815260200191508051906020019080838360005b838110156100dd5780820151818401526020810190506100c2565b50505050905090810190601f16801561010a5780820380516001836020036101000a031916815260200191505b5086810385528a818151815260200191508051906020019080838360005b83811015610143578082015181840152602081019050610128565b50505050905090810190601f1680156101705780820380516001836020036101000a031916815260200191505b50868103845289818151815260200191508051906020019080838360005b838110156101a957808201518184015260208101905061018e565b50505050905090810190601f1680156101d65780820380516001836020036101000a031916815260200191505b50868103835288818151815260200191508051906020019080838360005b8381101561020f5780820151818401526020810190506101f4565b50505050905090810190601f16801561023c5780820380516001836020036101000a031916815260200191505b50868103825287818151815260200191508051906020019080838360005b8381101561027557808201518184015260208101905061025a565b50505050905090810190601f1680156102a25780820380516001836020036101000a031916815260200191505b509b50505050505050505050505060405180910390f35b3480156102c557600080fd5b506102ce610799565b6040518082815260200191505060405180910390f35b3480156102f057600080fd5b50610463600480360381019080803590602001908201803590602001908080601f0160208091040260200160405190810160405280939291908181526020018383808284378201915050505050509192919290803590602001908201803590602001908080601f0160208091040260200160405190810160405280939291908181526020018383808284378201915050505050509192919290803590602001908201803590602001908080601f0160208091040260200160405190810160405280939291908181526020018383808284378201915050505050509192919290803590602001908201803590602001908080601f0160208091040260200160405190810160405280939291908181526020018383808284378201915050505050509192919290803590602001908201803590602001908080601f016020809104026020016040519081016040528093929190818152602001838380828437820191505050505050919291929050505061079f565b005b6000602052806000526040600020600091509050806000015490806001018054600181600116156101000203166002900480601f0160208091040260200160405190810160405280929190818152602001828054600181600116156101000203166002900480156105175780601f106104ec57610100808354040283529160200191610517565b820191906000526020600020905b8154815290600101906020018083116104fa57829003601f168201915b505050505090806002018054600181600116156101000203166002900480601f0160208091040260200160405190810160405280929190818152602001828054600181600116156101000203166002900480156105b55780601f1061058a576101008083540402835291602001916105b5565b820191906000526020600020905b81548152906001019060200180831161059857829003601f168201915b505050505090806003018054600181600116156101000203166002900480601f0160208091040260200160405190810160405280929190818152602001828054600181600116156101000203166002900480156106535780601f1061062857610100808354040283529160200191610653565b820191906000526020600020905b81548152906001019060200180831161063657829003601f168201915b505050505090806004018054600181600116156101000203166002900480601f0160208091040260200160405190810160405280929190818152602001828054600181600116156101000203166002900480156106f15780601f106106c6576101008083540402835291602001916106f1565b820191906000526020600020905b8154815290600101906020018083116106d457829003601f168201915b505050505090806005018054600181600116156101000203166002900480601f01602080910402602001604051908101604052809291908181526020018280546001816001161561010002031660029004801561078f5780601f106107645761010080835404028352916020019161078f565b820191906000526020600020905b81548152906001019060200180831161077257829003601f168201915b5050505050905086565b60015481565b60016000815480929190600101919050555060c060405190810160405280600154815260200186815260200185815260200184815260200183815260200182815250600080600154815260200190815260200160002060008201518160000155602082015181600101908051906020019061081b92919061089a565b50604082015181600201908051906020019061083892919061089a565b50606082015181600301908051906020019061085592919061089a565b50608082015181600401908051906020019061087292919061089a565b5060a082015181600501908051906020019061088f92919061089a565b509050505050505050565b828054600181600116156101000203166002900490600052602060002090601f016020900481019282601f106108db57805160ff1916838001178555610909565b82800160010185558215610909579182015b828111156109085782518255916020019190600101906108ed565b5b509050610916919061091a565b5090565b61093c91905b80821115610938576000816000905550600101610920565b5090565b905600a165627a7a723058201d2887828036f49a9cd582e8e96dfbe7b092d6547137668caf2a614749153c650029",
  "source": "pragma solidity 0.4.25;\r\n\r\ncontract Certificate{\r\n\t\r\n\tstruct Student{\r\n\r\n\t\tuint id;\r\n\t\tstring first_name;\r\n\t\tstring last_name;\r\n\t\tstring class;\r\n\t\tstring rank;\r\n\t\tstring field;\r\n\t\t//bool hod_verified;\r\n\t\t//bool principal_verified;\r\n\r\n\t}\r\n\r\n\tmapping(uint => Student) public students;\r\n\tuint public studentsCount;\r\n\r\n\r\n\tconstructor () public {\r\n        addStudent(\"Sanjay\",\"Janyani\",\"D10\",\"First\",\"Academics\");\r\n        addStudent(\"Latika\",\"Gurnani\",\"D10\",\"First\",\"Academics\");\r\n        \r\n        //addStudent(\"Candidate 2\");\r\n    }\r\n\r\n    function addStudent (string first_name,string last_name,string class,string rank,string field) public {\r\n\r\n        studentsCount ++;\r\n        students[studentsCount] = Student(studentsCount,first_name,last_name,class,rank,field);\r\n    }\r\n\t\r\n}",
  "sourcePath": "E:/Work/blockchain_projects/certificate/contracts/Certificate.sol",
  "compiler": {
    "name": "solc",
    "version": "0.4.25+commit.59dbf8f1.Emscripten.clang"
  },
  "schemaVersion": "3.0.16",
  "updatedAt": "2019-10-08T13:59:19.622Z",
  "devdoc": {
    "methods": {}
  },
  "userdoc": {
    "methods": {}
  }
}